{
  "contractName": "Voting",
  "abi": [
    {
      "inputs": [],
      "stateMutability": "nonpayable",
      "type": "constructor"
    },
    {
      "inputs": [
        {
          "internalType": "uint256",
          "name": "",
          "type": "uint256"
        }
      ],
      "name": "candidates",
      "outputs": [
        {
          "internalType": "uint256",
          "name": "id",
          "type": "uint256"
        },
        {
          "internalType": "string",
          "name": "name",
          "type": "string"
        },
        {
          "internalType": "uint256",
          "name": "voteCount",
          "type": "uint256"
        }
      ],
      "stateMutability": "view",
      "type": "function",
      "constant": true
    },
    {
      "inputs": [],
      "name": "candidatesCount",
      "outputs": [
        {
          "internalType": "uint256",
          "name": "",
          "type": "uint256"
        }
      ],
      "stateMutability": "view",
      "type": "function",
      "constant": true
    },
    {
      "inputs": [],
      "name": "owner",
      "outputs": [
        {
          "internalType": "address",
          "name": "",
          "type": "address"
        }
      ],
      "stateMutability": "view",
      "type": "function",
      "constant": true
    },
    {
      "inputs": [
        {
          "internalType": "address",
          "name": "",
          "type": "address"
        }
      ],
      "name": "voters",
      "outputs": [
        {
          "internalType": "bool",
          "name": "",
          "type": "bool"
        }
      ],
      "stateMutability": "view",
      "type": "function",
      "constant": true
    },
    {
      "inputs": [
        {
          "internalType": "string",
          "name": "_name",
          "type": "string"
        }
      ],
      "name": "addCandidate",
      "outputs": [],
      "stateMutability": "nonpayable",
      "type": "function"
    },
    {
      "inputs": [
        {
          "internalType": "uint256",
          "name": "_candidateId",
          "type": "uint256"
        }
      ],
      "name": "vote",
      "outputs": [],
      "stateMutability": "nonpayable",
      "type": "function"
    },
    {
      "inputs": [
        {
          "internalType": "uint256",
          "name": "_candidateId",
          "type": "uint256"
        }
      ],
      "name": "getCandidate",
      "outputs": [
        {
          "internalType": "uint256",
          "name": "",
          "type": "uint256"
        },
        {
          "internalType": "string",
          "name": "",
          "type": "string"
        },
        {
          "internalType": "uint256",
          "name": "",
          "type": "uint256"
        }
      ],
      "stateMutability": "view",
      "type": "function",
      "constant": true
    },
    {
      "inputs": [],
      "name": "getAllCandidates",
      "outputs": [
        {
          "internalType": "uint256[]",
          "name": "",
          "type": "uint256[]"
        },
        {
          "internalType": "string[]",
          "name": "",
          "type": "string[]"
        },
        {
          "internalType": "uint256[]",
          "name": "",
          "type": "uint256[]"
        }
      ],
      "stateMutability": "view",
      "type": "function",
      "constant": true
    }
  ],
  "bytecode": "0x608060405234801561001057600080fd5b50336000806101000a81548173ffffffffffffffffffffffffffffffffffffffff021916908373ffffffffffffffffffffffffffffffffffffffff16021790555061129a806100606000396000f3fe608060405234801561001057600080fd5b50600436106100885760003560e01c806335b8e8201161005b57806335b8e82014610119578063462e91ec1461014b5780638da5cb5b14610167578063a3ec138d1461018557610088565b80630121b93f1461008d5780632d35a8a2146100a95780632e6997fe146100c75780633477ee2e146100e7575b600080fd5b6100a760048036038101906100a29190610b68565b6101b5565b005b6100b161031a565b6040516100be9190610f06565b60405180910390f35b6100cf610320565b6040516100de93929190610e3f565b60405180910390f35b61010160048036038101906100fc9190610b68565b610688565b60405161011093929190610f21565b60405180910390f35b610133600480360381019061012e9190610b68565b61073a565b60405161014293929190610f21565b60405180910390f35b61016560048036038101906101609190610b27565b610875565b005b61016f610985565b60405161017c9190610e24565b60405180910390f35b61019f600480360381019061019a9190610afe565b6109a9565b6040516101ac9190610e8b565b60405180910390f35b600360003373ffffffffffffffffffffffffffffffffffffffff1673ffffffffffffffffffffffffffffffffffffffff16815260200190815260200160002060009054906101000a900460ff1615610242576040517f08c379a000000000000000000000000000000000000000000000000000000000815260040161023990610ee6565b60405180910390fd5b60008111801561025457506001548111155b610293576040517f08c379a000000000000000000000000000000000000000000000000000000000815260040161028a90610ec6565b60405180910390fd5b6001600360003373ffffffffffffffffffffffffffffffffffffffff1673ffffffffffffffffffffffffffffffffffffffff16815260200190815260200160002060006101000a81548160ff0219169083151502179055506002600082815260200190815260200160002060020160008154809291906103129061114f565b919050555050565b60015481565b6060806060600060015467ffffffffffffffff811115610369577f4e487b7100000000000000000000000000000000000000000000000000000000600052604160045260246000fd5b6040519080825280602002602001820160405280156103975781602001602082028036833780820191505090505b509050600060015467ffffffffffffffff8111156103de577f4e487b7100000000000000000000000000000000000000000000000000000000600052604160045260246000fd5b60405190808252806020026020018201604052801561041157816020015b60608152602001906001900390816103fc5790505b509050600060015467ffffffffffffffff811115610458577f4e487b7100000000000000000000000000000000000000000000000000000000600052604160045260246000fd5b6040519080825280602002602001820160405280156104865781602001602082028036833780820191505090505b5090506000600190505b600154811161067657600060026000838152602001908152602001600020604051806060016040529081600082015481526020016001820180546104d39061111d565b80601f01602080910402602001604051908101604052809291908181526020018280546104ff9061111d565b801561054c5780601f106105215761010080835404028352916020019161054c565b820191906000526020600020905b81548152906001019060200180831161052f57829003601f168201915b505050505081526020016002820154815250509050806000015185600184610574919061105f565b815181106105ab577f4e487b7100000000000000000000000000000000000000000000000000000000600052603260045260246000fd5b6020026020010181815250508060200151846001846105ca919061105f565b81518110610601577f4e487b7100000000000000000000000000000000000000000000000000000000600052603260045260246000fd5b602002602001018190525080604001518360018461061f919061105f565b81518110610656577f4e487b7100000000000000000000000000000000000000000000000000000000600052603260045260246000fd5b60200260200101818152505050808061066e9061114f565b915050610490565b50828282955095509550505050909192565b60026020528060005260406000206000915090508060000154908060010180546106b19061111d565b80601f01602080910402602001604051908101604052809291908181526020018280546106dd9061111d565b801561072a5780601f106106ff5761010080835404028352916020019161072a565b820191906000526020600020905b81548152906001019060200180831161070d57829003601f168201915b5050505050908060020154905083565b600060606000808411801561075157506001548411155b610790576040517f08c379a000000000000000000000000000000000000000000000000000000000815260040161078790610ec6565b60405180910390fd5b600060026000868152602001908152602001600020604051806060016040529081600082015481526020016001820180546107ca9061111d565b80601f01602080910402602001604051908101604052809291908181526020018280546107f69061111d565b80156108435780601f1061081857610100808354040283529160200191610843565b820191906000526020600020905b81548152906001019060200180831161082657829003601f168201915b505050505081526020016002820154815250509050806000015181602001518260400151935093509350509193909250565b60008054906101000a900473ffffffffffffffffffffffffffffffffffffffff1673ffffffffffffffffffffffffffffffffffffffff163373ffffffffffffffffffffffffffffffffffffffff1614610903576040517f08c379a00000000000000000000000000000000000000000000000000000000081526004016108fa90610ea6565b60405180910390fd5b600160008154809291906109169061114f565b91905055506040518060600160405280600154815260200182815260200160008152506002600060015481526020019081526020016000206000820151816000015560208201518160010190805190602001906109749291906109c9565b506040820151816002015590505050565b60008054906101000a900473ffffffffffffffffffffffffffffffffffffffff1681565b60036020528060005260406000206000915054906101000a900460ff1681565b8280546109d59061111d565b90600052602060002090601f0160209004810192826109f75760008555610a3e565b82601f10610a1057805160ff1916838001178555610a3e565b82800160010185558215610a3e579182015b82811115610a3d578251825591602001919060010190610a22565b5b509050610a4b9190610a4f565b5090565b5b80821115610a68576000816000905550600101610a50565b5090565b6000610a7f610a7a84610f90565b610f5f565b905082815260208101848484011115610a9757600080fd5b610aa28482856110db565b509392505050565b600081359050610ab981611236565b92915050565b600082601f830112610ad057600080fd5b8135610ae0848260208601610a6c565b91505092915050565b600081359050610af88161124d565b92915050565b600060208284031215610b1057600080fd5b6000610b1e84828501610aaa565b91505092915050565b600060208284031215610b3957600080fd5b600082013567ffffffffffffffff811115610b5357600080fd5b610b5f84828501610abf565b91505092915050565b600060208284031215610b7a57600080fd5b6000610b8884828501610ae9565b91505092915050565b6000610b9d8383610cae565b905092915050565b6000610bb18383610e06565b60208301905092915050565b610bc681611093565b82525050565b6000610bd782610fe0565b610be1818561101b565b935083602082028501610bf385610fc0565b8060005b85811015610c2f5784840389528151610c108582610b91565b9450610c1b83611001565b925060208a01995050600181019050610bf7565b50829750879550505050505092915050565b6000610c4c82610feb565b610c56818561102c565b9350610c6183610fd0565b8060005b83811015610c92578151610c798882610ba5565b9750610c848361100e565b925050600181019050610c65565b5085935050505092915050565b610ca8816110a5565b82525050565b6000610cb982610ff6565b610cc3818561103d565b9350610cd38185602086016110ea565b610cdc81611225565b840191505092915050565b6000610cf282610ff6565b610cfc818561104e565b9350610d0c8185602086016110ea565b610d1581611225565b840191505092915050565b6000610d2d60218361104e565b91507f4f6e6c79206f776e65722063616e2063616c6c20746869732066756e6374696f60008301527f6e000000000000000000000000000000000000000000000000000000000000006020830152604082019050919050565b6000610d9360148361104e565b91507f496e76616c69642063616e6469646174652049440000000000000000000000006000830152602082019050919050565b6000610dd360168361104e565b91507f596f75206861766520616c726561647920766f746564000000000000000000006000830152602082019050919050565b610e0f816110d1565b82525050565b610e1e816110d1565b82525050565b6000602082019050610e396000830184610bbd565b92915050565b60006060820190508181036000830152610e598186610c41565b90508181036020830152610e6d8185610bcc565b90508181036040830152610e818184610c41565b9050949350505050565b6000602082019050610ea06000830184610c9f565b92915050565b60006020820190508181036000830152610ebf81610d20565b9050919050565b60006020820190508181036000830152610edf81610d86565b9050919050565b60006020820190508181036000830152610eff81610dc6565b9050919050565b6000602082019050610f1b6000830184610e15565b92915050565b6000606082019050610f366000830186610e15565b8181036020830152610f488185610ce7565b9050610f576040830184610e15565b949350505050565b6000604051905081810181811067ffffffffffffffff82111715610f8657610f856111f6565b5b8060405250919050565b600067ffffffffffffffff821115610fab57610faa6111f6565b5b601f19601f8301169050602081019050919050565b6000819050602082019050919050565b6000819050602082019050919050565b600081519050919050565b600081519050919050565b600081519050919050565b6000602082019050919050565b6000602082019050919050565b600082825260208201905092915050565b600082825260208201905092915050565b600082825260208201905092915050565b600082825260208201905092915050565b600061106a826110d1565b9150611075836110d1565b92508282101561108857611087611198565b5b828203905092915050565b600061109e826110b1565b9050919050565b60008115159050919050565b600073ffffffffffffffffffffffffffffffffffffffff82169050919050565b6000819050919050565b82818337600083830152505050565b60005b838110156111085780820151818401526020810190506110ed565b83811115611117576000848401525b50505050565b6000600282049050600182168061113557607f821691505b60208210811415611149576111486111c7565b5b50919050565b600061115a826110d1565b91507fffffffffffffffffffffffffffffffffffffffffffffffffffffffffffffffff82141561118d5761118c611198565b5b600182019050919050565b7f4e487b7100000000000000000000000000000000000000000000000000000000600052601160045260246000fd5b7f4e487b7100000000000000000000000000000000000000000000000000000000600052602260045260246000fd5b7f4e487b7100000000000000000000000000000000000000000000000000000000600052604160045260246000fd5b6000601f19601f8301169050919050565b61123f81611093565b811461124a57600080fd5b50565b611256816110d1565b811461126157600080fd5b5056fea2646970667358221220e573824901f8f00f38ccdcd39faa9dd8b73cb6d15c45c9744eed23799ebf6d8164736f6c63430008000033",
  "immutableReferences": {},
  "source": "// SPDX-License-Identifier: MIT\r\npragma solidity ^0.8.0;\r\n\r\ncontract Voting {\r\n    struct Candidate {\r\n        uint id;\r\n        string name;\r\n        uint voteCount;\r\n    }\r\n    \r\n    address public owner;\r\n    uint public candidatesCount;\r\n    mapping(uint => Candidate) public candidates;\r\n    mapping(address => bool) public voters;\r\n\r\n    modifier onlyOwner() {\r\n        require(msg.sender == owner, \"Only owner can call this function\");\r\n        _;\r\n    }   \r\n\r\n    constructor() {\r\n        owner = msg.sender;\r\n    }\r\n\r\n    function addCandidate(string memory _name) public onlyOwner {\r\n        candidatesCount++;\r\n        candidates[candidatesCount] = Candidate(candidatesCount, _name, 0);\r\n    }\r\n\r\n    function vote(uint _candidateId) public {\r\n        require(!voters[msg.sender], \"You have already voted\");\r\n        require(_candidateId > 0 && _candidateId <= candidatesCount, \"Invalid candidate ID\");\r\n\r\n        voters[msg.sender] = true;\r\n        candidates[_candidateId].voteCount++;\r\n    }\r\n\r\n    function getCandidate(uint _candidateId) public view returns (uint, string memory, uint) {\r\n        require(_candidateId > 0 && _candidateId <= candidatesCount, \"Invalid candidate ID\");\r\n        Candidate memory candidate = candidates[_candidateId];\r\n        return (candidate.id, candidate.name, candidate.voteCount);\r\n    }\r\n\r\n\r\n            function getAllCandidates() public view returns (uint[] memory, string[] memory, uint[] memory) {\r\n            uint[] memory ids = new uint[](candidatesCount);\r\n            string[] memory names = new string[](candidatesCount);\r\n            uint[] memory voteCounts = new uint[](candidatesCount);\r\n\r\n            for (uint i = 1; i <= candidatesCount; i++) {\r\n                Candidate memory candidate = candidates[i];\r\n                ids[i - 1] = candidate.id;\r\n                names[i - 1] = candidate.name;\r\n                voteCounts[i - 1] = candidate.voteCount;\r\n            }\r\n\r\n            return (ids, names, voteCounts);\r\n        }\r\n\r\n    \r\n}",
  "sourcePath": "C:\\Users\\EXNASIR\\Desktop\\VotingApp\\contracts\\Voting.sol",
  "compiler": {
    "name": "solc",
    "version": "0.8.0+commit.c7dfd78e.Emscripten.clang"
  },
  "schemaVersion": "3.4.16",
  "updatedAt": "2024-06-08T12:27:12.303Z",
  "networkType": "ethereum",
  "devdoc": {
    "kind": "dev",
    "methods": {},
    "version": 1
  },
  "userdoc": {
    "kind": "user",
    "methods": {},
    "version": 1
  }
}